{
  "_format": "hh-sol-artifact-1",
  "contractName": "CryptoBrew",
  "sourceName": "contracts/CryptoBrew.sol",
  "abi": [
    {
      "inputs": [],
      "stateMutability": "nonpayable",
      "type": "constructor"
    },
    {
      "inputs": [
        {
          "internalType": "string",
          "name": "name",
          "type": "string"
        },
        {
          "internalType": "string",
          "name": "message",
          "type": "string"
        },
        {
          "internalType": "string",
          "name": "amount",
          "type": "string"
        }
      ],
      "name": "brewCoffee",
      "outputs": [],
      "stateMutability": "payable",
      "type": "function"
    },
    {
      "inputs": [],
      "name": "getBrews",
      "outputs": [
        {
          "components": [
            {
              "internalType": "string",
              "name": "name",
              "type": "string"
            },
            {
              "internalType": "string",
              "name": "message",
              "type": "string"
            },
            {
              "internalType": "string",
              "name": "amount",
              "type": "string"
            },
            {
              "internalType": "uint256",
              "name": "timestamp",
              "type": "uint256"
            },
            {
              "internalType": "address",
              "name": "from",
              "type": "address"
            }
          ],
          "internalType": "struct CryptoBrew.Brew[]",
          "name": "",
          "type": "tuple[]"
        }
      ],
      "stateMutability": "view",
      "type": "function"
    }
  ],
  "bytecode": "0x608060405234801561001057600080fd5b5033600160006101000a81548173ffffffffffffffffffffffffffffffffffffffff021916908373ffffffffffffffffffffffffffffffffffffffff160217905550610c91806100616000396000f3fe6080604052600436106100295760003560e01c8063028d6a681461002e57806305ccb9e81461004a575b600080fd5b610048600480360381019061004391906105f2565b610075565b005b34801561005657600080fd5b5061005f610223565b60405161006c91906108b8565b60405180910390f35b600034116100b8576040517f08c379a00000000000000000000000000000000000000000000000000000000081526004016100af9061095d565b60405180910390fd5b600160009054906101000a900473ffffffffffffffffffffffffffffffffffffffff1673ffffffffffffffffffffffffffffffffffffffff166108fc349081150290604051600060405180830381858888f19350505050158015610120573d6000803e3d6000fd5b5060006040518060a001604052808581526020018481526020018381526020014281526020013373ffffffffffffffffffffffffffffffffffffffff168152509080600181540180825580915050600190039060005260206000209060050201600090919091909150600082015181600001908161019e9190610b89565b5060208201518160010190816101b49190610b89565b5060408201518160020190816101ca9190610b89565b506060820151816003015560808201518160040160006101000a81548173ffffffffffffffffffffffffffffffffffffffff021916908373ffffffffffffffffffffffffffffffffffffffff1602179055505050505050565b60606000805480602002602001604051908101604052809291908181526020016000905b8282101561048f57838290600052602060002090600502016040518060a001604052908160008201805461027a906109ac565b80601f01602080910402602001604051908101604052809291908181526020018280546102a6906109ac565b80156102f35780601f106102c8576101008083540402835291602001916102f3565b820191906000526020600020905b8154815290600101906020018083116102d657829003601f168201915b5050505050815260200160018201805461030c906109ac565b80601f0160208091040260200160405190810160405280929190818152602001828054610338906109ac565b80156103855780601f1061035a57610100808354040283529160200191610385565b820191906000526020600020905b81548152906001019060200180831161036857829003601f168201915b5050505050815260200160028201805461039e906109ac565b80601f01602080910402602001604051908101604052809291908181526020018280546103ca906109ac565b80156104175780601f106103ec57610100808354040283529160200191610417565b820191906000526020600020905b8154815290600101906020018083116103fa57829003601f168201915b50505050508152602001600382015481526020016004820160009054906101000a900473ffffffffffffffffffffffffffffffffffffffff1673ffffffffffffffffffffffffffffffffffffffff1673ffffffffffffffffffffffffffffffffffffffff168152505081526020019060010190610247565b50505050905090565b6000604051905090565b600080fd5b600080fd5b600080fd5b600080fd5b6000601f19601f8301169050919050565b7f4e487b7100000000000000000000000000000000000000000000000000000000600052604160045260246000fd5b6104ff826104b6565b810181811067ffffffffffffffff8211171561051e5761051d6104c7565b5b80604052505050565b6000610531610498565b905061053d82826104f6565b919050565b600067ffffffffffffffff82111561055d5761055c6104c7565b5b610566826104b6565b9050602081019050919050565b82818337600083830152505050565b600061059561059084610542565b610527565b9050828152602081018484840111156105b1576105b06104b1565b5b6105bc848285610573565b509392505050565b600082601f8301126105d9576105d86104ac565b5b81356105e9848260208601610582565b91505092915050565b60008060006060848603121561060b5761060a6104a2565b5b600084013567ffffffffffffffff811115610629576106286104a7565b5b610635868287016105c4565b935050602084013567ffffffffffffffff811115610656576106556104a7565b5b610662868287016105c4565b925050604084013567ffffffffffffffff811115610683576106826104a7565b5b61068f868287016105c4565b9150509250925092565b600081519050919050565b600082825260208201905092915050565b6000819050602082019050919050565b600081519050919050565b600082825260208201905092915050565b60005b838110156106ff5780820151818401526020810190506106e4565b60008484015250505050565b6000610716826106c5565b61072081856106d0565b93506107308185602086016106e1565b610739816104b6565b840191505092915050565b6000819050919050565b61075781610744565b82525050565b600073ffffffffffffffffffffffffffffffffffffffff82169050919050565b60006107888261075d565b9050919050565b6107988161077d565b82525050565b600060a08301600083015184820360008601526107bb828261070b565b915050602083015184820360208601526107d5828261070b565b915050604083015184820360408601526107ef828261070b565b9150506060830151610804606086018261074e565b506080830151610817608086018261078f565b508091505092915050565b600061082e838361079e565b905092915050565b6000602082019050919050565b600061084e82610699565b61085881856106a4565b93508360208202850161086a856106b5565b8060005b858110156108a657848403895281516108878582610822565b945061089283610836565b925060208a0199505060018101905061086e565b50829750879550505050505092915050565b600060208201905081810360008301526108d28184610843565b905092915050565b600082825260208201905092915050565b7f506c6561736520627579206d79206120636f666665652067726561746572207460008201527f68616e20302065746865722e0000000000000000000000000000000000000000602082015250565b6000610947602c836108da565b9150610952826108eb565b604082019050919050565b600060208201905081810360008301526109768161093a565b9050919050565b7f4e487b7100000000000000000000000000000000000000000000000000000000600052602260045260246000fd5b600060028204905060018216806109c457607f821691505b6020821081036109d7576109d661097d565b5b50919050565b60008190508160005260206000209050919050565b60006020601f8301049050919050565b600082821b905092915050565b600060088302610a3f7fffffffffffffffffffffffffffffffffffffffffffffffffffffffffffffffff82610a02565b610a498683610a02565b95508019841693508086168417925050509392505050565b6000819050919050565b6000610a86610a81610a7c84610744565b610a61565b610744565b9050919050565b6000819050919050565b610aa083610a6b565b610ab4610aac82610a8d565b848454610a0f565b825550505050565b600090565b610ac9610abc565b610ad4818484610a97565b505050565b5b81811015610af857610aed600082610ac1565b600181019050610ada565b5050565b601f821115610b3d57610b0e816109dd565b610b17846109f2565b81016020851015610b26578190505b610b3a610b32856109f2565b830182610ad9565b50505b505050565b600082821c905092915050565b6000610b6060001984600802610b42565b1980831691505092915050565b6000610b798383610b4f565b9150826002028217905092915050565b610b92826106c5565b67ffffffffffffffff811115610bab57610baa6104c7565b5b610bb582546109ac565b610bc0828285610afc565b600060209050601f831160018114610bf35760008415610be1578287015190505b610beb8582610b6d565b865550610c53565b601f198416610c01866109dd565b60005b82811015610c2957848901518255600182019150602085019450602081019050610c04565b86831015610c465784890151610c42601f891682610b4f565b8355505b6001600288020188555050505b50505050505056fea2646970667358221220dcae053cbe1ee13986e9a77db28c5876e9e6bae80579d4a2d78f5778f7d6f0c364736f6c63430008120033",
  "linkReferences": {},
  "deployedLinkReferences": {}
}